:020000040800F2
:1000000000500020611300084D0100084F01000856
:1000100051010008530100085501000800000000CC
:100020000000000000000000000000005701000870
:1000300059010008000000005B0100085D01000894
:10004000A9130008A9130008A9130008A9130008A0
:10005000A9130008A9130008A9130008A913000890
:10006000A9130008A9130008A9130008A913000880
:10007000A9130008A9130008A9130008A913000870
:10008000A9130008A9130008A9130008A913000860
:10009000A9130008A9130008A9130008A913000850
:1000A000A9130008A9130008A9130008A913000840
:1000B000A9130008A9130008A9130008A913000830
:1000C000A9130008A9130008A9130008A913000820
:1000D000A9130008A9130008A9130008A913000810
:1000E000A9130008A9130008A913000800000000C4
:1000F0000000000000000000000000000000000000
:0C01000000000000000000005FF808F1A3
:10010C0010B5054C237833B9044B13B10448AFF345
:10011C0000800123237010BD0C00002000000000A3
:10012C007816000808B5034B1BB103490348AFF31D
:10013C00008008BD000000001000002078160008A8
:10014C00FEE7FEE7FEE7FEE7FEE770477047704705
:10015C0008B500F065FB08BD82B00E4B9A6942F001
:10016C0001029A619A6902F001020092009ADA691E
:10017C0042F08052DA61DB6903F080530193019BFA
:10018C00054A536823F0E06343F00073536002B0F8
:10019C00704700BF001002400000014010B586B04F
:1001AC00002302930393049305930268114B9A4224
:1001BC0001D006B010BD104CA36943F00803A36135
:1001CC00A36903F008030093009BC023029312233E
:1001DC0003930323059302A9084800F065FEE36925
:1001EC0043F40013E361E36903F400130193019BEF
:1001FC00DFE700BF0054004000100240000C01403B
:10020C000268094B9A4200D0704782B003F56443F0
:10021C009A6942F400629A619B6903F4006301934A
:10022C00019B02B0704700BF002C014000B587B0A5
:10023C000023029303930493059302680D4B9A4297
:10024C0002D007B05DF804FB03F564439A6942F0F1
:10025C0004029A619B6903F004030193019B4FF420
:10026C008073029302230393059302A9024800F0C2
:10027C001BFEE6E7002C01400008014010B586B0DB
:10028C00002302930393049305930268174B9A423D
:10029C0001D006B010BD03F558439A6942F4804270
:1002AC009A619A6902F480420092009A9A6942F02B
:1002BC0004029A619B6903F004030193019B4FF4C0
:1002CC00007302930223039303230593084C02A9A2
:1002DC00204600F0E9FD4FF4806302930023039362
:1002EC00049302A9204600F0DFFDD2E7003801405C
:1002FC000008014070B4036A23F001030362036A2F
:10030C004668826922F073020C6844EA020523F005
:10031C0002028B6813430D4CA04209D00B4CA04237
:10032C000DD0466085614A684263036270BC7047B9
:10033C0023F00803CA68134323F00403EEE726F402
:10034C0040764A6932438E691643EAE7002C014035
:10035C0030B4036A23F480730362036A4568C2698C
:10036C0022F073020C68224323F400738C6843EA76
:10037C0004230F4CA04209D00D4CA0420ED0456076
:10038C00C2614A68C263036230BC704723F40063E5
:10039C00CC6843EA042323F48063EDE725F440554D
:1003AC004C6945EA04158C6945EA0415E7E700BF7A
:1003BC00002C014030B4036A23F480530362036AB7
:1003CC004468C26922F4E6420D6842EA052223F42D
:1003DC0000538D6843EA0533074DA84206D04460AC
:1003EC00C2614A680264036230BC704724F48044E2
:1003FC004D6944EA8514F2E7002C014003681B4A5E
:10040C0090420AD0B0F1804F07D0A2F594329042BE
:10041C0003D002F58062904203D123F070034A6846
:10042C001343124A90420AD0B0F1804F07D0A2F584
:10043C009432904203D002F58062904203D123F4AF
:10044C004073CA68134323F080034A691343036063
:10045C008B68C3620B688362044B984202D0012301
:10046C00436170470B690363F9E700BF002C01403F
:10047C0040B310B5044690F83D30F3B1022384F834
:10048C003D30214651F8040BFFF7B8FF012384F8E7
:10049C00463084F83E3084F83F3084F8403084F89D
:1004AC00413084F8423084F8433084F8443084F886
:1004BC00453084F83D30002010BD80F83C30FFF70B
:1004CC009FFEDBE70120704730B4036A23F0100372
:1004DC000362036A4468826922F4E6420D6842EAC8
:1004EC00052223F020038D6843EA05130E4DA84224
:1004FC0009D00D4DA8420ED0446082614A688263D7
:10050C00036230BC704723F08003CD6843EA0513C7
:10051C0023F04003EDE724F440644D6944EA85047C
:10052C008D6944EA8504E7E7002C014038B590F862
:10053C003C30012B60D004460D46012380F83C3042
:10054C000C2A1AD8DFE802F0071919191D19191904
:10055C003119191944000068FFF7CCFE2268936921
:10056C0043F0080393612268936923F004039361B9
:10057C002268936929690B439361002084F83C003D
:10058C0038BD0068FFF7A0FF2268936943F400634D
:10059C0093612268936923F4806393612268936961
:1005AC00296943EA01239361E7E70068FFF7D0FE6E
:1005BC002268D36943F00803D3612268D36923F01E
:1005CC000403D3612268D36929690B43D361D4E74F
:1005DC000068FFF7EFFE2268D36943F40063D36130
:1005EC002268D36923F48063D3612268D3692969B3
:1005FC0043EA0123D361C0E70220C1E790F83C3005
:10060C00012B2CD010B4012380F83C30022380F84D
:10061C003D3003685A689C6822F0700C0A6842EA04
:10062C000C025A6003680F4A93420AD0B3F1804F10
:10063C0007D0A2F59432934203D002F58062934224
:10064C0004D124F080044A6814439C60012380F890
:10065C003D30002380F83C30184610BC7047022017
:10066C00704700BF002C014090F83C30012B22D089
:10067C00012380F83C30CB6823F440738A68134321
:10068C0023F480634A68134323F400630A6813431A
:10069C0023F480530A69134323F400534A69134328
:1006AC0023F48043CA69134302685364002380F81F
:1006BC003C301846704702207047000010B50446C5
:1006CC000268136923F44053C1680B4313618368B8
:1006DC000269134342691A430168CB6823F4B0538F
:1006EC0023F00C031343CB600268536923F440736B
:1006FC0081690B4353610268134B9A4220D000F07E
:10070C00B3FB024602EB820202EB820263689B009F
:10071C00B2FBF3F20D48A0FB02314909642303FB41
:10072C0011231B013233A0FB03235B0903F0F002FE
:10073C0002EB011203F00F03216813448B6010BD10
:10074C0000F0A2FB0246DDE7003801401F85EB51AB
:10075C0058B310B5044690F83D300BB3242384F8FD
:10076C003D302268D36823F40053D3602046FFF752
:10077C00A5FF2268136923F490431361226853691F
:10078C0023F02A0353612268D36843F40053D360E7
:10079C0000202064202384F83D3084F83E3010BDC6
:1007AC0080F83C30FFF76AFDD8E701207047000065
:1007BC0010B504460E4B18784FF47A73B3FBF0F374
:1007CC000C4A1068B0FBF3F000F0D0FC68B90F2CA9
:1007DC0001D901200AE0002221464FF0FF3000F041
:1007EC008DFC054B1C60002000E0012010BD00BFFB
:1007FC0000000020080000200400002008B5074A73
:10080C00136843F010031360032000F065FC0F2005
:10081C00FFF7CEFFFFF7A0FC002008BD0020024030
:10082C00034A1168034B1B780B441360704700BFDD
:10083C002800002000000020014B1868704700BF02
:10084C002800002082B0084B1B68084AA2FB032337
:10085C005B0A00FB03F3019300BF019B5A1E01923C
:10086C00002BF9D102B0704708000020D34D621064
:10087C00002800F0F18170B582B00446036813F0D3
:10088C00010F2CD0994B5B6803F00C03042B1DD08B
:10089C00964B5B6803F00C03082B12D06368B3F51E
:1008AC00803F41D0002B55D103F1804303F5043335
:1008BC001A6822F480321A601A6822F480221A60B4
:1008CC0037E08A4B5B6813F4803FE7D0874B1B689B
:1008DC0013F4003F03D06368002B00F0BF81236842
:1008EC0013F0020F75D0814B5B6813F00C0F5FD0C7
:1008FC007E4B5B6803F00C03082B54D02369002B50
:10090C0000F08A807A4B01221A60FFF795FF0546AA
:10091C00764B1B6813F0020F75D1FFF78DFF401B50
:10092C000228F5D903209EE1704A136843F4803302
:10093C001360636843B3FFF77FFF05466B4B1B687F
:10094C0013F4003FCBD1FFF777FF401B6428F5D998
:10095C00032088E1B3F5A02F09D0644B1A6822F468
:10096C0080321A601A6822F480221A60E1E703F1DF
:10097C008043A3F53C331A6842F480221A601A684B
:10098C0042F480321A60D4E7FFF756FF0546574B06
:10099C001B6813F4003FA2D0FFF74EFF401B6428E6
:1009AC00F5D903205FE1514B5B6813F4803FA5D16F
:1009BC004E4B1B6813F0020F03D02369012B40F040
:1009CC004F814A4A136823F0F803616943EAC10373
:1009DC001360236813F0080F33D0A369002B5CD08D
:1009EC00434B0122C3F88024FFF726FF05463F4BFB
:1009FC005B6A13F0020F21D1FFF71EFF401B022888
:100A0C00F5D903202FE1394A136823F0F803616903
:100A1C0043EAC1031360DCE7354B00221A60FFF791
:100A2C000BFF0546314B1B6813F0020FD1D0FFF7BB
:100A3C0003FF401B0228F5D9032014E10120FFF726
:100A4C0001FF236813F0040F00F09680274BDB693D
:100A5C0013F0805F34D1254BDA6942F08052DA61B1
:100A6C00DB6903F080530193019B0125214B1B682B
:100A7C0013F4807F26D0E368012B3DD0002B53D19B
:100A8C0003F1804303F504331A6A22F001021A625F
:100A9C001A6A22F004021A6233E0154B0022C3F8E2
:100AAC008024FFF7C9FE0546104B5B6A13F0020F5A
:100ABC00C7D0FFF7C1FE401B0228F5D90320D2E0B6
:100ACC000025D3E70B4A136843F480731360FFF7D8
:100ADC00B3FE0646074B1B6813F4807FCBD1FFF7A0
:100AEC00ABFE801B6428F5D90320BCE0001002404B
:100AFC0000004242007000405F4A136A43F0010359
:100B0C001362E36833B3FFF797FE06465A4B1B6A32
:100B1C0013F0020F2FD1FFF78FFE801B41F28833A9
:100B2C009842F3D903209EE0052B09D0524B1A6A48
:100B3C0022F001021A621A6A22F004021A62E0E739
:100B4C004D4B1A6A42F004021A621A6A42F0010210
:100B5C001A62D6E7FFF770FE0646474B1B6A13F086
:100B6C00020F08D0FFF768FE801B41F288339842D1
:100B7C00F3D9032077E0E5B9E369002B72D03E4A44
:100B8C00526802F00C02082A56D0022B17D03B4BAD
:100B9C0000221A66FFF750FE0446374B1B6813F011
:100BAC00007F47D0FFF748FE001B0228F5D9032031
:100BBC0059E0314AD36923F08053D361DCE72F4BE2
:100BCC0000221A66FFF738FE05462B4B1B6813F004
:100BDC00007F06D0FFF730FE401B0228F5D903201A
:100BEC0041E0236AB3F5803F1AD023494B6823F4C4
:100BFC007413226A606A024313434B601F4B012239
:100C0C001A66FFF719FE04461B4B1B6813F0007F96
:100C1C000ED1FFF711FE001B0228F5D9032022E0AC
:100C2C00154A536823F40033A1680B435360DCE787
:100C3C00002018E0002016E0012B16D00E4B5B684C
:100C4C0003F48031226A914211D103F47013626A69
:100C5C0093420ED1002006E001207047012002E0F3
:100C6C00012000E0002002B070BD0120FBE7012054
:100C7C00F9E70120F7E700BF0010024000004242F4
:100C8C0086B0174B0FCB0DF1180C0CE90F0040F28E
:100C9C000123ADF80430134B5B6803F00C02082AF7
:100CAC0002D0114806B07047C3F3834218326A442D
:100CBC0012F8100C13F4803F0DD00A4B5B68C3F391
:100CCC00404318336B4413F8143C074A02FB00F002
:100CDC00B0FBF3F0E6E7054B03FB00F0E2E700BFE7
:100CEC00901600080010024000127A0000093D0026
:100CFC00002800F0A08070B50D460446524B1B68CE
:100D0C0003F007038B420BD24F4A136823F00703FF
:100D1C000B431360136803F007038B4240F08D8084
:100D2C00236813F0020F17D013F0040F04D0474AB6
:100D3C00536843F4E0635360236813F0080F04D046
:100D4C00424A536843F460535360404A536823F05B
:100D5C00F003A1680B435360236813F0010F31D0EB
:100D6C006368012B20D0022B25D0384A126812F070
:100D7C00020F64D035494A6822F0030213434B60DA
:100D8C00FFF75AFD0646314B5B6803F00C036268B3
:100D9C00B3EB820F16D0FFF74FFD801B41F2883367
:100DAC009842F0D9032045E0284A126812F4003F1B
:100DBC00E0D101203EE0254A126812F0007FD9D123
:100DCC00012037E0204B1B6803F00703AB420AD924
:100DDC001D4A136823F007032B431360136803F0B9
:100DEC000703AB422DD1236813F0040F06D0174A2A
:100DFC00536823F4E063E1680B435360236813F0FA
:100E0C00080F07D0114A536823F46053216943EA51
:100E1C00C1035360FFF734FF0C4B5B68C3F3031340
:100E2C000B4AD35CD8400B4B18600B4B1868FFF780
:100E3C00BFFC002070BD012070470120FAE70120A3
:100E4C00F8E70120F6E700BF002002400010024046
:100E5C00A41600080800002004000020014B1868AC
:100E6C00704700BF0800002008B5FFF7F7FF044BE0
:100E7C005B68C3F30223034AD35CD84008BD00BFB0
:100E8C0000100240B416000808B5FFF7E7FF044B4A
:100E9C005B68C3F3C223034AD35CD84008BD00BFD0
:100EAC0000100240B416000870B582B00024A446AD
:100EBC00A6E0804DAA4210D007D97F4DAA420CD093
:100ECC0005F58035AA4208D013E0A5F58015AA4295
:100EDC0003D005F57025AA4207D18A68002A58D09C
:100EEC00012A51D04361082403E0A5F58015AA42DC
:100EFC00F3D0BEF1FF0F4ED80646BEF1FF0F4CD813
:100F0C004FEA8C0233680F25954023EA050304FA57
:100F1C0002F2134333604B6813F0805F6ED0674B63
:100F2C009A6942F001029A619B6903F001030193F3
:100F3C00019B4FEA9C02951C614B53F825600CF009
:100F4C0003039D000F23AB4026EA03065D4B98423A
:100F5C0029D003F58063984200F08E8003F58063FE
:100F6C00984200F08B8003F58063984219D00423DB
:100F7C001AE0CC68BDE7CC680434BAE7CC68083416
:100F8C00B7E7CC680C34B4E703610824B1E700245C
:100F9C00AFE70424ADE7061DAFE7ACF10802920001
:100FAC00B0E7032300E00023AB4033430232444D4F
:100FBC0045F822304B6813F4803F61D0424A1368E5
:100FCC0043EA0E0313604B6813F4003F5ED03E4AB5
:100FDC00536843EA0E0353604B6813F4801F5BD0D5
:100FEC00394A936843EA0E0393604B6813F4001F6D
:100FFC0058D0354AD36843EA0E03D3600CF1010C88
:10100C000A6832FA0CF353D0012303FA0CF302EA08
:10101C00030E33EA0202F1D14A68122A3FF649AFB5
:10102C00122A3FF666AF01A555F822F0E70E00082C
:10103C007F0F0008890F00089B0F0008FF0E0008A7
:10104C00FF0E0008FF0E0008FF0E0008FF0E000840
:10105C00FF0E0008FF0E0008FF0E0008FF0E000830
:10106C00FF0E0008FF0E0008FF0E0008FF0E000820
:10107C00830F00088F0F0008012395E7022393E7E5
:10108C00114A136823EA0E0313609CE70E4A536857
:10109C0023EA0E0353609FE70B4A936823EA0E037F
:1010AC009360A2E7084AD36823EA0E03D360A5E74E
:1010BC0002B070BD00002210000031100010024080
:1010CC000000014000080140000401400AB1016128
:1010DC007047090401617047074AD36823F4E06341
:1010EC001B041B0C000200F4E060034343F0BF63DD
:1010FC0043F40033D360704700ED00E000B5194BAA
:10110C00DB68C3F30223C3F1070CBCF1040F28BF47
:10111C004FF0040C03F1040EBEF1060F18D9033B7B
:10112C004FF0FF3E0EFA0CFC21EA0C0199400EFA2E
:10113C0003F322EA0303194300280BDB0901C9B2AC
:10114C0000F1604000F5614080F800135DF804FB8D
:10115C000023E5E700F00F000901C9B2024B195456
:10116C00F4E700BF00ED00E014ED00E00138B0F151
:10117C00807F0BD24FF0E0235861054AF02182F8B2
:10118C0023100020986107221A61704701207047D4
:10119C0000ED00E070470000002800F0CC8070B536
:1011AC00044690F83D30002B77D0242384F83D3052
:1011BC002268136823F0010313602268136843F458
:1011CC00004313602268136823F400431360FFF795
:1011DC004BFE62685A4B9A4264D85A4B98428CBF69
:1011EC0000230123002B40F0A8805749A1FB0031BC
:1011FC008B0C25686A6822F03F0242EA91426A60D1
:10120C0021680A6A22F03F0266684D4DAE424FD803
:10121C00013313430B622168CA6922F44F4222F056
:10122C00FF026668464B9E424CD8431E7600B3FBC9
:10123C00F6F3013340F6FC70034278D0C3F30B0392
:10124C001343CB6121680B6823F0C003E269206A69
:10125C00024313430B6021688B6823F4034323F090
:10126C00FF032269E068024313438B602168CB685B
:10127C0023F0FF036269A06902431343CB60226829
:10128C00136843F00103136000202064202384F8CA
:10129C003D30206384F83E0070BD80F83C30FEF792
:1012AC007DFF82E7294B98428CBF0023012399E7ED
:1012BC004FF4967505FB03F3254DA5FB03539B09D2
:1012CC000133A6E7A368BBB9451E06EB460CB5FB7C
:1012DC00FCF50135C5F30B05B5FA85F56D0945BB74
:1012EC00C3B9013806EB4603B0FBF3F30133C3F388
:1012FC000B0343F40043A3E7451E06EB860C0CEBF3
:10130C008C0CB5FBFCF50135C5F30B05B5FA85F571
:10131C006D09E4E7013806EB860303EB8303B0FBAE
:10132C00F3F30133C3F30B0343F4404388E7042383
:10133C0086E7012384E7012070470120ACE700BF5A
:10134C00A08601007F841E0083DE1B43FF083D0046
:10135C00D34D62100C480D490D4A002302E0D458BD
:10136C00C4500433C4188C42F9D30A4A0A4C0023E3
:10137C0001E013600432A242FBD3FFF70BFF00F035
:10138C0049F900F038F97047000000200C000020EB
:10139C00C41600080C0000200C010020FEE7000021
:1013AC0030B589B000240494059406940794304B0E
:1013BC009A6942F010029A619A6902F01002009246
:1013CC00009A9A6942F020029A619A6902F020020E
:1013DC000192019A9A6942F004029A619A6902F0A8
:1013EC0004020292029A9A6942F008029A619B697D
:1013FC0003F008030393039B1E4D22464FF4005148
:10140C002846FFF763FE4FF4005304930123059322
:10141C0006940223079304A92846FFF745FD4FF4D1
:10142C00404304930324059404A92846FFF73CFD8C
:10143C000494059404A91048FFF736FD49F6FF0300
:10144C000493059404A90D48FFF72EFD4FF63F7346
:10145C000493059404A90A48FFF726FD094A53682A
:10146C0043F0E06343F40043536009B030BD00BF68
:10147C00001002400010014000140140000801401F
:10148C00000C01400000014072B6FEE708B50A48A6
:10149C000A4B03604FF4E133436000238360C36065
:1014AC0003610C2242618361C361FFF751F900B9FA
:1014BC0008BDFFF7E9FF00BFC8000020003801405D
:1014CC0008B50A480A4B03600A4B4360002383604B
:1014DC00C3604FF48042026143618361C361036264
:1014EC00FFF75AFE00B908BDFFF7CEFF2C00002015
:1014FC0000540040801A060010B592B000241094DD
:10150C00119409940A940B940C940D940E940F94CA
:10151C002022214601A800F0A1F82048204B0360AE
:10152C00446084604FF6FF73C3600461446184615E
:10153C00FEF79EFF002829D100231093119310A9C8
:10154C001648FFF75BF818BB6023099300220A9238
:10155C000B920C920D920E920F9209A90F48FEF766
:10156C00E5FFB8B900230193029303930493059309
:10157C004FF400520692089301A90848FFF774F83B
:10158C0050B90648FEF752FE12B010BDFFF77CFFB3
:10159C00FFF77AFFFFF778FFFFF776FF8000002058
:1015AC00002C014000B591B02822002106A800F0C3
:1015BC0055F800230193029303930493059302239C
:1015CC00069301230A9310230B9306A8FFF750F9F7
:1015DC0068B90F23019300210291039104910591A5
:1015EC0001A8FFF785FB20B911B05DF804FBFFF7EC
:1015FC004BFFFFF749FF08B5FFF700F9FFF7D2FFE4
:10160C00FFF7CEFEFFF742FFFFF75AFFFFF774FF1D
:10161C00FEE7000070B500260C4D0D4C641BA410A9
:10162C00A64209D100F022F800260A4D0A4C641B90
:10163C00A410A64205D170BD55F8043B984701365D
:10164C00EEE755F8043B98470136F2E7BC16000864
:10165C00BC160008BC160008C0160008034602445D
:10166C00934200D1704703F8011BF9E7F8B500BFAE
:10167C00F8BC08BC9E467047F8B500BFF8BC08BC67
:04168C009E467047BF
:1016900002030405060708090A0B0C0D0E0F1010B3
:1016A0000000000000000000000000000102030430
:0C16B00006070809000000000102030406
:0416BC0031010008F0
:0416C0000D01000810
:0C16C40001000000100000000024F400F1
:04000005080013617B
:00000001FF
